{
  "_format": "hh-sol-artifact-1",
  "contractName": "InscriptArticle",
  "sourceName": "contracts/InscriptArticle.sol",
  "abi": [
    {
      "inputs": [],
      "stateMutability": "nonpayable",
      "type": "constructor"
    },
    {
      "anonymous": false,
      "inputs": [
        {
          "indexed": true,
          "internalType": "address",
          "name": "owner",
          "type": "address"
        },
        {
          "indexed": true,
          "internalType": "address",
          "name": "approved",
          "type": "address"
        },
        {
          "indexed": true,
          "internalType": "uint256",
          "name": "tokenId",
          "type": "uint256"
        }
      ],
      "name": "Approval",
      "type": "event"
    },
    {
      "anonymous": false,
      "inputs": [
        {
          "indexed": true,
          "internalType": "address",
          "name": "owner",
          "type": "address"
        },
        {
          "indexed": true,
          "internalType": "address",
          "name": "operator",
          "type": "address"
        },
        {
          "indexed": false,
          "internalType": "bool",
          "name": "approved",
          "type": "bool"
        }
      ],
      "name": "ApprovalForAll",
      "type": "event"
    },
    {
      "anonymous": false,
      "inputs": [
        {
          "indexed": true,
          "internalType": "address",
          "name": "from",
          "type": "address"
        },
        {
          "indexed": true,
          "internalType": "address",
          "name": "to",
          "type": "address"
        },
        {
          "indexed": true,
          "internalType": "uint256",
          "name": "tokenId",
          "type": "uint256"
        }
      ],
      "name": "Transfer",
      "type": "event"
    },
    {
      "inputs": [
        {
          "internalType": "address",
          "name": "to",
          "type": "address"
        },
        {
          "internalType": "uint256",
          "name": "tokenId",
          "type": "uint256"
        }
      ],
      "name": "approve",
      "outputs": [],
      "stateMutability": "nonpayable",
      "type": "function"
    },
    {
      "inputs": [
        {
          "internalType": "address",
          "name": "owner",
          "type": "address"
        }
      ],
      "name": "balanceOf",
      "outputs": [
        {
          "internalType": "uint256",
          "name": "",
          "type": "uint256"
        }
      ],
      "stateMutability": "view",
      "type": "function"
    },
    {
      "inputs": [
        {
          "internalType": "string",
          "name": "tokenURI",
          "type": "string"
        }
      ],
      "name": "createToken",
      "outputs": [
        {
          "internalType": "uint256",
          "name": "",
          "type": "uint256"
        }
      ],
      "stateMutability": "payable",
      "type": "function"
    },
    {
      "inputs": [
        {
          "internalType": "uint256",
          "name": "tokenId",
          "type": "uint256"
        }
      ],
      "name": "getApproved",
      "outputs": [
        {
          "internalType": "address",
          "name": "",
          "type": "address"
        }
      ],
      "stateMutability": "view",
      "type": "function"
    },
    {
      "inputs": [],
      "name": "getListingPrice",
      "outputs": [
        {
          "internalType": "uint256",
          "name": "",
          "type": "uint256"
        }
      ],
      "stateMutability": "view",
      "type": "function"
    },
    {
      "inputs": [
        {
          "internalType": "address",
          "name": "owner",
          "type": "address"
        },
        {
          "internalType": "address",
          "name": "operator",
          "type": "address"
        }
      ],
      "name": "isApprovedForAll",
      "outputs": [
        {
          "internalType": "bool",
          "name": "",
          "type": "bool"
        }
      ],
      "stateMutability": "view",
      "type": "function"
    },
    {
      "inputs": [],
      "name": "name",
      "outputs": [
        {
          "internalType": "string",
          "name": "",
          "type": "string"
        }
      ],
      "stateMutability": "view",
      "type": "function"
    },
    {
      "inputs": [
        {
          "internalType": "uint256",
          "name": "tokenId",
          "type": "uint256"
        }
      ],
      "name": "ownerOf",
      "outputs": [
        {
          "internalType": "address",
          "name": "",
          "type": "address"
        }
      ],
      "stateMutability": "view",
      "type": "function"
    },
    {
      "inputs": [
        {
          "internalType": "address",
          "name": "from",
          "type": "address"
        },
        {
          "internalType": "address",
          "name": "to",
          "type": "address"
        },
        {
          "internalType": "uint256",
          "name": "tokenId",
          "type": "uint256"
        }
      ],
      "name": "safeTransferFrom",
      "outputs": [],
      "stateMutability": "nonpayable",
      "type": "function"
    },
    {
      "inputs": [
        {
          "internalType": "address",
          "name": "from",
          "type": "address"
        },
        {
          "internalType": "address",
          "name": "to",
          "type": "address"
        },
        {
          "internalType": "uint256",
          "name": "tokenId",
          "type": "uint256"
        },
        {
          "internalType": "bytes",
          "name": "_data",
          "type": "bytes"
        }
      ],
      "name": "safeTransferFrom",
      "outputs": [],
      "stateMutability": "nonpayable",
      "type": "function"
    },
    {
      "inputs": [
        {
          "internalType": "address",
          "name": "operator",
          "type": "address"
        },
        {
          "internalType": "bool",
          "name": "approved",
          "type": "bool"
        }
      ],
      "name": "setApprovalForAll",
      "outputs": [],
      "stateMutability": "nonpayable",
      "type": "function"
    },
    {
      "inputs": [
        {
          "internalType": "bytes4",
          "name": "interfaceId",
          "type": "bytes4"
        }
      ],
      "name": "supportsInterface",
      "outputs": [
        {
          "internalType": "bool",
          "name": "",
          "type": "bool"
        }
      ],
      "stateMutability": "view",
      "type": "function"
    },
    {
      "inputs": [],
      "name": "symbol",
      "outputs": [
        {
          "internalType": "string",
          "name": "",
          "type": "string"
        }
      ],
      "stateMutability": "view",
      "type": "function"
    },
    {
      "inputs": [
        {
          "internalType": "uint256",
          "name": "tokenId",
          "type": "uint256"
        }
      ],
      "name": "tokenURI",
      "outputs": [
        {
          "internalType": "string",
          "name": "",
          "type": "string"
        }
      ],
      "stateMutability": "view",
      "type": "function"
    },
    {
      "inputs": [
        {
          "internalType": "address",
          "name": "from",
          "type": "address"
        },
        {
          "internalType": "address",
          "name": "to",
          "type": "address"
        },
        {
          "internalType": "uint256",
          "name": "tokenId",
          "type": "uint256"
        }
      ],
      "name": "transferFrom",
      "outputs": [],
      "stateMutability": "nonpayable",
      "type": "function"
    }
  ],
  "bytecode": "0x60806040526658d15e176280006008553480156200001c57600080fd5b50604080518082018252601081526f496e7363726970742041727469636c6560801b6020808301918252835180850190945260048452631250549560e21b9084015281519192916200007191600091620000a2565b50805162000087906001906020840190620000a2565b5050600980546001600160a01b031916331790555062000185565b828054620000b09062000148565b90600052602060002090601f016020900481019282620000d457600085556200011f565b82601f10620000ef57805160ff19168380011785556200011f565b828001600101855582156200011f579182015b828111156200011f57825182559160200191906001019062000102565b506200012d92915062000131565b5090565b5b808211156200012d576000815560010162000132565b600181811c908216806200015d57607f821691505b602082108114156200017f57634e487b7160e01b600052602260045260246000fd5b50919050565b61178280620001956000396000f3fe6080604052600436106100e85760003560e01c806345576f941161008a578063a22cb46511610059578063a22cb46514610265578063b88d4fde14610285578063c87b56dd146102a5578063e985e9c5146102c557600080fd5b806345576f94146101fd5780636352211e1461021057806370a082311461023057806395d89b411461025057600080fd5b8063095ea7b3116100c6578063095ea7b31461017c57806312e855851461019e57806323b872dd146101bd57806342842e0e146101dd57600080fd5b806301ffc9a7146100ed57806306fdde0314610122578063081812fc14610144575b600080fd5b3480156100f957600080fd5b5061010d610108366004611233565b61030e565b60405190151581526020015b60405180910390f35b34801561012e57600080fd5b50610137610360565b60405161011991906112a8565b34801561015057600080fd5b5061016461015f3660046112bb565b6103f2565b6040516001600160a01b039091168152602001610119565b34801561018857600080fd5b5061019c6101973660046112f0565b61047f565b005b3480156101aa57600080fd5b506008545b604051908152602001610119565b3480156101c957600080fd5b5061019c6101d836600461131a565b610595565b3480156101e957600080fd5b5061019c6101f836600461131a565b6105c6565b6101af61020b3660046113e2565b6105e1565b34801561021c57600080fd5b5061016461022b3660046112bb565b610612565b34801561023c57600080fd5b506101af61024b36600461142b565b610689565b34801561025c57600080fd5b50610137610710565b34801561027157600080fd5b5061019c610280366004611446565b61071f565b34801561029157600080fd5b5061019c6102a0366004611482565b61072e565b3480156102b157600080fd5b506101376102c03660046112bb565b610766565b3480156102d157600080fd5b5061010d6102e03660046114fe565b6001600160a01b03918216600090815260056020908152604080832093909416825291909152205460ff1690565b60006001600160e01b031982166380ac58cd60e01b148061033f57506001600160e01b03198216635b5e139f60e01b145b8061035a57506301ffc9a760e01b6001600160e01b03198316145b92915050565b60606000805461036f90611531565b80601f016020809104026020016040519081016040528092919081815260200182805461039b90611531565b80156103e85780601f106103bd576101008083540402835291602001916103e8565b820191906000526020600020905b8154815290600101906020018083116103cb57829003601f168201915b5050505050905090565b60006103fd826108dd565b6104635760405162461bcd60e51b815260206004820152602c60248201527f4552433732313a20617070726f76656420717565727920666f72206e6f6e657860448201526b34b9ba32b73a103a37b5b2b760a11b60648201526084015b60405180910390fd5b506000908152600460205260409020546001600160a01b031690565b600061048a82610612565b9050806001600160a01b0316836001600160a01b031614156104f85760405162461bcd60e51b815260206004820152602160248201527f4552433732313a20617070726f76616c20746f2063757272656e74206f776e656044820152603960f91b606482015260840161045a565b336001600160a01b0382161480610514575061051481336102e0565b6105865760405162461bcd60e51b815260206004820152603860248201527f4552433732313a20617070726f76652063616c6c6572206973206e6f74206f7760448201527f6e6572206e6f7220617070726f76656420666f7220616c6c0000000000000000606482015260840161045a565b61059083836108fa565b505050565b61059f3382610968565b6105bb5760405162461bcd60e51b815260040161045a9061156c565b610590838383610a51565b6105908383836040518060200160405280600081525061072e565b60006105f1600780546001019055565b60006105fc60075490565b90506106083382610bed565b61035a8184610d20565b6000818152600260205260408120546001600160a01b03168061035a5760405162461bcd60e51b815260206004820152602960248201527f4552433732313a206f776e657220717565727920666f72206e6f6e657869737460448201526832b73a103a37b5b2b760b91b606482015260840161045a565b60006001600160a01b0382166106f45760405162461bcd60e51b815260206004820152602a60248201527f4552433732313a2062616c616e636520717565727920666f7220746865207a65604482015269726f206164647265737360b01b606482015260840161045a565b506001600160a01b031660009081526003602052604090205490565b60606001805461036f90611531565b61072a338383610dab565b5050565b6107383383610968565b6107545760405162461bcd60e51b815260040161045a9061156c565b61076084848484610e7a565b50505050565b6060610771826108dd565b6107d75760405162461bcd60e51b815260206004820152603160248201527f45524337323155524953746f726167653a2055524920717565727920666f72206044820152703737b732bc34b9ba32b73a103a37b5b2b760791b606482015260840161045a565b600082815260066020526040812080546107f090611531565b80601f016020809104026020016040519081016040528092919081815260200182805461081c90611531565b80156108695780601f1061083e57610100808354040283529160200191610869565b820191906000526020600020905b81548152906001019060200180831161084c57829003601f168201915b50505050509050600061088760408051602081019091526000815290565b905080516000141561089a575092915050565b8151156108cc5780826040516020016108b49291906115bd565b60405160208183030381529060405292505050919050565b6108d584610ead565b949350505050565b6000908152600260205260409020546001600160a01b0316151590565b600081815260046020526040902080546001600160a01b0319166001600160a01b038416908117909155819061092f82610612565b6001600160a01b03167f8c5be1e5ebec7d5bd14f71427d1e84f3dd0314c0f7b2291e5b200ac8c7c3b92560405160405180910390a45050565b6000610973826108dd565b6109d45760405162461bcd60e51b815260206004820152602c60248201527f4552433732313a206f70657261746f7220717565727920666f72206e6f6e657860448201526b34b9ba32b73a103a37b5b2b760a11b606482015260840161045a565b60006109df83610612565b9050806001600160a01b0316846001600160a01b03161480610a2657506001600160a01b0380821660009081526005602090815260408083209388168352929052205460ff165b806108d55750836001600160a01b0316610a3f846103f2565b6001600160a01b031614949350505050565b826001600160a01b0316610a6482610612565b6001600160a01b031614610ac85760405162461bcd60e51b815260206004820152602560248201527f4552433732313a207472616e736665722066726f6d20696e636f72726563742060448201526437bbb732b960d91b606482015260840161045a565b6001600160a01b038216610b2a5760405162461bcd60e51b8152602060048201526024808201527f4552433732313a207472616e7366657220746f20746865207a65726f206164646044820152637265737360e01b606482015260840161045a565b610b356000826108fa565b6001600160a01b0383166000908152600360205260408120805460019290610b5e908490611602565b90915550506001600160a01b0382166000908152600360205260408120805460019290610b8c908490611619565b909155505060008181526002602052604080822080546001600160a01b0319166001600160a01b0386811691821790925591518493918716917fddf252ad1be2c89b69c2b068fc378daa952ba7f163c4a11628f55a4df523b3ef91a4505050565b6001600160a01b038216610c435760405162461bcd60e51b815260206004820181905260248201527f4552433732313a206d696e7420746f20746865207a65726f2061646472657373604482015260640161045a565b610c4c816108dd565b15610c995760405162461bcd60e51b815260206004820152601c60248201527f4552433732313a20746f6b656e20616c7265616479206d696e74656400000000604482015260640161045a565b6001600160a01b0382166000908152600360205260408120805460019290610cc2908490611619565b909155505060008181526002602052604080822080546001600160a01b0319166001600160a01b03861690811790915590518392907fddf252ad1be2c89b69c2b068fc378daa952ba7f163c4a11628f55a4df523b3ef908290a45050565b610d29826108dd565b610d8c5760405162461bcd60e51b815260206004820152602e60248201527f45524337323155524953746f726167653a2055524920736574206f66206e6f6e60448201526d32bc34b9ba32b73a103a37b5b2b760911b606482015260840161045a565b6000828152600660209081526040909120825161059092840190611181565b816001600160a01b0316836001600160a01b03161415610e0d5760405162461bcd60e51b815260206004820152601960248201527f4552433732313a20617070726f766520746f2063616c6c657200000000000000604482015260640161045a565b6001600160a01b03838116600081815260056020908152604080832094871680845294825291829020805460ff191686151590811790915591519182527f17307eab39ab6107e8899845ad3d59bd9653f200f220920489ca2b5937696c31910160405180910390a3505050565b610e85848484610a51565b610e9184848484610f85565b6107605760405162461bcd60e51b815260040161045a90611631565b6060610eb8826108dd565b610f1c5760405162461bcd60e51b815260206004820152602f60248201527f4552433732314d657461646174613a2055524920717565727920666f72206e6f60448201526e3732bc34b9ba32b73a103a37b5b2b760891b606482015260840161045a565b6000610f3360408051602081019091526000815290565b90506000815111610f535760405180602001604052806000815250610f7e565b80610f5d84611083565b604051602001610f6e9291906115bd565b6040516020818303038152906040525b9392505050565b60006001600160a01b0384163b1561107857604051630a85bd0160e11b81526001600160a01b0385169063150b7a0290610fc9903390899088908890600401611683565b6020604051808303816000875af1925050508015611004575060408051601f3d908101601f19168201909252611001918101906116c0565b60015b61105e573d808015611032576040519150601f19603f3d011682016040523d82523d6000602084013e611037565b606091505b5080516110565760405162461bcd60e51b815260040161045a90611631565b805181602001fd5b6001600160e01b031916630a85bd0160e11b1490506108d5565b506001949350505050565b6060816110a75750506040805180820190915260018152600360fc1b602082015290565b8160005b81156110d157806110bb816116dd565b91506110ca9050600a8361170e565b91506110ab565b60008167ffffffffffffffff8111156110ec576110ec611356565b6040519080825280601f01601f191660200182016040528015611116576020820181803683370190505b5090505b84156108d55761112b600183611602565b9150611138600a86611722565b611143906030611619565b60f81b81838151811061115857611158611736565b60200101906001600160f81b031916908160001a90535061117a600a8661170e565b945061111a565b82805461118d90611531565b90600052602060002090601f0160209004810192826111af57600085556111f5565b82601f106111c857805160ff19168380011785556111f5565b828001600101855582156111f5579182015b828111156111f55782518255916020019190600101906111da565b50611201929150611205565b5090565b5b808211156112015760008155600101611206565b6001600160e01b03198116811461123057600080fd5b50565b60006020828403121561124557600080fd5b8135610f7e8161121a565b60005b8381101561126b578181015183820152602001611253565b838111156107605750506000910152565b60008151808452611294816020860160208601611250565b601f01601f19169290920160200192915050565b602081526000610f7e602083018461127c565b6000602082840312156112cd57600080fd5b5035919050565b80356001600160a01b03811681146112eb57600080fd5b919050565b6000806040838503121561130357600080fd5b61130c836112d4565b946020939093013593505050565b60008060006060848603121561132f57600080fd5b611338846112d4565b9250611346602085016112d4565b9150604084013590509250925092565b634e487b7160e01b600052604160045260246000fd5b600067ffffffffffffffff8084111561138757611387611356565b604051601f8501601f19908116603f011681019082821181831017156113af576113af611356565b816040528093508581528686860111156113c857600080fd5b858560208301376000602087830101525050509392505050565b6000602082840312156113f457600080fd5b813567ffffffffffffffff81111561140b57600080fd5b8201601f8101841361141c57600080fd5b6108d58482356020840161136c565b60006020828403121561143d57600080fd5b610f7e826112d4565b6000806040838503121561145957600080fd5b611462836112d4565b91506020830135801515811461147757600080fd5b809150509250929050565b6000806000806080858703121561149857600080fd5b6114a1856112d4565b93506114af602086016112d4565b925060408501359150606085013567ffffffffffffffff8111156114d257600080fd5b8501601f810187136114e357600080fd5b6114f28782356020840161136c565b91505092959194509250565b6000806040838503121561151157600080fd5b61151a836112d4565b9150611528602084016112d4565b90509250929050565b600181811c9082168061154557607f821691505b6020821081141561156657634e487b7160e01b600052602260045260246000fd5b50919050565b60208082526031908201527f4552433732313a207472616e736665722063616c6c6572206973206e6f74206f6040820152701ddb995c881b9bdc88185c1c1c9bdd9959607a1b606082015260800190565b600083516115cf818460208801611250565b8351908301906115e3818360208801611250565b01949350505050565b634e487b7160e01b600052601160045260246000fd5b600082821015611614576116146115ec565b500390565b6000821982111561162c5761162c6115ec565b500190565b60208082526032908201527f4552433732313a207472616e7366657220746f206e6f6e20455243373231526560408201527131b2b4bb32b91034b6b83632b6b2b73a32b960711b606082015260800190565b6001600160a01b03858116825284166020820152604081018390526080606082018190526000906116b69083018461127c565b9695505050505050565b6000602082840312156116d257600080fd5b8151610f7e8161121a565b60006000198214156116f1576116f16115ec565b5060010190565b634e487b7160e01b600052601260045260246000fd5b60008261171d5761171d6116f8565b500490565b600082611731576117316116f8565b500690565b634e487b7160e01b600052603260045260246000fdfea2646970667358221220bc3897dedfd11056ed7474c3d685f188294b0505c008a0fbceb9afcc5a1c308664736f6c634300080a0033",
  "linkReferences": {},
  "deployedLinkReferences": {}
}